{
  "_format": "hh-sol-artifact-1",
  "contractName": "VendingFactory",
  "sourceName": "common/contract/bfc.random.coin.machine.sol",
  "abi": [
    {
      "anonymous": false,
      "inputs": [
        {
          "indexed": true,
          "internalType": "address",
          "name": "user",
          "type": "address"
        },
        {
          "indexed": false,
          "internalType": "uint256",
          "name": "itemId",
          "type": "uint256"
        },
        {
          "indexed": false,
          "internalType": "bool",
          "name": "won",
          "type": "bool"
        },
        {
          "indexed": false,
          "internalType": "uint256",
          "name": "rewardType",
          "type": "uint256"
        },
        {
          "indexed": false,
          "internalType": "string",
          "name": "gifticonHash",
          "type": "string"
        },
        {
          "indexed": false,
          "internalType": "string",
          "name": "message",
          "type": "string"
        }
      ],
      "name": "InsertCoinResult",
      "type": "event"
    },
    {
      "anonymous": false,
      "inputs": [
        {
          "indexed": false,
          "internalType": "address",
          "name": "",
          "type": "address"
        },
        {
          "indexed": false,
          "internalType": "uint256",
          "name": "",
          "type": "uint256"
        }
      ],
      "name": "Received",
      "type": "event"
    },
    {
      "inputs": [
        {
          "internalType": "uint256",
          "name": "_idx",
          "type": "uint256"
        },
        {
          "components": [
            {
              "internalType": "uint256",
              "name": "_type",
              "type": "uint256"
            },
            {
              "internalType": "address",
              "name": "contractAddress",
              "type": "address"
            },
            {
              "internalType": "uint256",
              "name": "balanceOrIdx",
              "type": "uint256"
            },
            {
              "internalType": "string",
              "name": "gifticonHash",
              "type": "string"
            }
          ],
          "internalType": "struct VendingFactory.DetailReward[]",
          "name": "_detailRewards",
          "type": "tuple[]"
        }
      ],
      "name": "addBulkRewardByIdx",
      "outputs": [],
      "stateMutability": "nonpayable",
      "type": "function"
    },
    {
      "inputs": [
        {
          "internalType": "uint256",
          "name": "_idx",
          "type": "uint256"
        },
        {
          "components": [
            {
              "internalType": "uint256",
              "name": "_type",
              "type": "uint256"
            },
            {
              "internalType": "address",
              "name": "contractAddress",
              "type": "address"
            },
            {
              "internalType": "uint256",
              "name": "balanceOrIdx",
              "type": "uint256"
            },
            {
              "internalType": "string",
              "name": "gifticonHash",
              "type": "string"
            }
          ],
          "internalType": "struct VendingFactory.DetailReward",
          "name": "_detailReward",
          "type": "tuple"
        }
      ],
      "name": "addRewardByIdx",
      "outputs": [],
      "stateMutability": "nonpayable",
      "type": "function"
    },
    {
      "inputs": [
        {
          "components": [
            {
              "internalType": "address",
              "name": "contractAddress",
              "type": "address"
            },
            {
              "internalType": "uint256",
              "name": "number",
              "type": "uint256"
            }
          ],
          "internalType": "struct VendingFactory.bulkSet[]",
          "name": "nfts",
          "type": "tuple[]"
        }
      ],
      "name": "bulkDepositNFT",
      "outputs": [],
      "stateMutability": "nonpayable",
      "type": "function"
    },
    {
      "inputs": [
        {
          "components": [
            {
              "internalType": "address",
              "name": "contractAddress",
              "type": "address"
            },
            {
              "internalType": "uint256",
              "name": "number",
              "type": "uint256"
            }
          ],
          "internalType": "struct VendingFactory.bulkSet[]",
          "name": "tokens",
          "type": "tuple[]"
        }
      ],
      "name": "bulkDepositToken",
      "outputs": [],
      "stateMutability": "nonpayable",
      "type": "function"
    },
    {
      "inputs": [
        {
          "components": [
            {
              "internalType": "address",
              "name": "contractAddress",
              "type": "address"
            },
            {
              "internalType": "uint256",
              "name": "number",
              "type": "uint256"
            }
          ],
          "internalType": "struct VendingFactory.bulkSet[]",
          "name": "nfts",
          "type": "tuple[]"
        }
      ],
      "name": "bulkWithdrawNFT",
      "outputs": [],
      "stateMutability": "nonpayable",
      "type": "function"
    },
    {
      "inputs": [
        {
          "components": [
            {
              "internalType": "address",
              "name": "contractAddress",
              "type": "address"
            },
            {
              "internalType": "uint256",
              "name": "number",
              "type": "uint256"
            }
          ],
          "internalType": "struct VendingFactory.bulkSet[]",
          "name": "tokens",
          "type": "tuple[]"
        }
      ],
      "name": "bulkWithdrawToken",
      "outputs": [],
      "stateMutability": "nonpayable",
      "type": "function"
    },
    {
      "inputs": [
        {
          "internalType": "uint256",
          "name": "_price",
          "type": "uint256"
        },
        {
          "internalType": "uint256",
          "name": "_winningRate",
          "type": "uint256"
        }
      ],
      "name": "createNewItem",
      "outputs": [
        {
          "internalType": "uint256",
          "name": "",
          "type": "uint256"
        }
      ],
      "stateMutability": "nonpayable",
      "type": "function"
    },
    {
      "inputs": [
        {
          "internalType": "address",
          "name": "_contractAddress",
          "type": "address"
        },
        {
          "internalType": "uint256",
          "name": "_tokenId",
          "type": "uint256"
        }
      ],
      "name": "depositNFT",
      "outputs": [],
      "stateMutability": "nonpayable",
      "type": "function"
    },
    {
      "inputs": [
        {
          "internalType": "address",
          "name": "_contractAddress",
          "type": "address"
        },
        {
          "internalType": "uint256",
          "name": "_amount",
          "type": "uint256"
        }
      ],
      "name": "depositToken",
      "outputs": [],
      "stateMutability": "nonpayable",
      "type": "function"
    },
    {
      "inputs": [
        {
          "internalType": "uint256",
          "name": "_idx",
          "type": "uint256"
        },
        {
          "internalType": "uint256",
          "name": "_price",
          "type": "uint256"
        }
      ],
      "name": "editPriceByIdx",
      "outputs": [],
      "stateMutability": "nonpayable",
      "type": "function"
    },
    {
      "inputs": [
        {
          "internalType": "address",
          "name": "_wallet",
          "type": "address"
        }
      ],
      "name": "getBlackList",
      "outputs": [
        {
          "internalType": "bool",
          "name": "",
          "type": "bool"
        }
      ],
      "stateMutability": "view",
      "type": "function"
    },
    {
      "inputs": [],
      "name": "getC2eContractAddress",
      "outputs": [
        {
          "internalType": "address",
          "name": "",
          "type": "address"
        }
      ],
      "stateMutability": "view",
      "type": "function"
    },
    {
      "inputs": [
        {
          "internalType": "string",
          "name": "_hash",
          "type": "string"
        }
      ],
      "name": "getGifticonAllocation",
      "outputs": [
        {
          "internalType": "address",
          "name": "",
          "type": "address"
        }
      ],
      "stateMutability": "view",
      "type": "function"
    },
    {
      "inputs": [
        {
          "internalType": "string",
          "name": "_hash",
          "type": "string"
        }
      ],
      "name": "getGifticonIsUsed",
      "outputs": [
        {
          "internalType": "bool",
          "name": "",
          "type": "bool"
        }
      ],
      "stateMutability": "view",
      "type": "function"
    },
    {
      "inputs": [
        {
          "internalType": "uint256",
          "name": "_idx",
          "type": "uint256"
        }
      ],
      "name": "getItem",
      "outputs": [
        {
          "components": [
            {
              "internalType": "uint256",
              "name": "price",
              "type": "uint256"
            },
            {
              "internalType": "bool",
              "name": "status",
              "type": "bool"
            },
            {
              "internalType": "uint256",
              "name": "itemIdx",
              "type": "uint256"
            },
            {
              "internalType": "uint256",
              "name": "winningRate",
              "type": "uint256"
            }
          ],
          "internalType": "struct VendingFactory.PriceItem",
          "name": "",
          "type": "tuple"
        }
      ],
      "stateMutability": "view",
      "type": "function"
    },
    {
      "inputs": [],
      "name": "getItemLength",
      "outputs": [
        {
          "internalType": "uint256",
          "name": "",
          "type": "uint256"
        }
      ],
      "stateMutability": "view",
      "type": "function"
    },
    {
      "inputs": [
        {
          "internalType": "uint256",
          "name": "_idx",
          "type": "uint256"
        }
      ],
      "name": "getItemPauseStatus",
      "outputs": [
        {
          "internalType": "bool",
          "name": "",
          "type": "bool"
        }
      ],
      "stateMutability": "view",
      "type": "function"
    },
    {
      "inputs": [
        {
          "internalType": "uint256",
          "name": "_idx",
          "type": "uint256"
        }
      ],
      "name": "getItemWinningRate",
      "outputs": [
        {
          "internalType": "uint256",
          "name": "",
          "type": "uint256"
        }
      ],
      "stateMutability": "view",
      "type": "function"
    },
    {
      "inputs": [
        {
          "internalType": "uint256",
          "name": "_idx",
          "type": "uint256"
        },
        {
          "internalType": "uint256",
          "name": "_rewardIdx",
          "type": "uint256"
        }
      ],
      "name": "getReward",
      "outputs": [
        {
          "components": [
            {
              "internalType": "uint256",
              "name": "_type",
              "type": "uint256"
            },
            {
              "internalType": "address",
              "name": "contractAddress",
              "type": "address"
            },
            {
              "internalType": "uint256",
              "name": "balanceOrIdx",
              "type": "uint256"
            },
            {
              "internalType": "string",
              "name": "gifticonHash",
              "type": "string"
            }
          ],
          "internalType": "struct VendingFactory.DetailReward",
          "name": "",
          "type": "tuple"
        }
      ],
      "stateMutability": "view",
      "type": "function"
    },
    {
      "inputs": [
        {
          "internalType": "uint256",
          "name": "_itemId",
          "type": "uint256"
        }
      ],
      "name": "getRewardWeights",
      "outputs": [
        {
          "internalType": "uint256[]",
          "name": "",
          "type": "uint256[]"
        }
      ],
      "stateMutability": "view",
      "type": "function"
    },
    {
      "inputs": [
        {
          "internalType": "uint256",
          "name": "_idx",
          "type": "uint256"
        }
      ],
      "name": "getRewards",
      "outputs": [
        {
          "components": [
            {
              "internalType": "uint256",
              "name": "_type",
              "type": "uint256"
            },
            {
              "internalType": "address",
              "name": "contractAddress",
              "type": "address"
            },
            {
              "internalType": "uint256",
              "name": "balanceOrIdx",
              "type": "uint256"
            },
            {
              "internalType": "string",
              "name": "gifticonHash",
              "type": "string"
            }
          ],
          "internalType": "struct VendingFactory.DetailReward[]",
          "name": "",
          "type": "tuple[]"
        }
      ],
      "stateMutability": "view",
      "type": "function"
    },
    {
      "inputs": [
        {
          "internalType": "address",
          "name": "_wallet",
          "type": "address"
        }
      ],
      "name": "getWhitelist",
      "outputs": [
        {
          "internalType": "bool",
          "name": "",
          "type": "bool"
        }
      ],
      "stateMutability": "view",
      "type": "function"
    },
    {
      "inputs": [
        {
          "internalType": "uint256",
          "name": "_itemId",
          "type": "uint256"
        }
      ],
      "name": "insertCoin",
      "outputs": [
        {
          "components": [
            {
              "internalType": "uint256",
              "name": "_type",
              "type": "uint256"
            },
            {
              "internalType": "address",
              "name": "contractAddress",
              "type": "address"
            },
            {
              "internalType": "uint256",
              "name": "balanceOrIdx",
              "type": "uint256"
            },
            {
              "internalType": "string",
              "name": "gifticonHash",
              "type": "string"
            }
          ],
          "internalType": "struct VendingFactory.DetailReward",
          "name": "",
          "type": "tuple"
        }
      ],
      "stateMutability": "nonpayable",
      "type": "function"
    },
    {
      "inputs": [
        {
          "internalType": "uint256",
          "name": "",
          "type": "uint256"
        }
      ],
      "name": "isSpecialItem",
      "outputs": [
        {
          "internalType": "bool",
          "name": "",
          "type": "bool"
        }
      ],
      "stateMutability": "view",
      "type": "function"
    },
    {
      "inputs": [],
      "name": "manager",
      "outputs": [
        {
          "internalType": "address",
          "name": "",
          "type": "address"
        }
      ],
      "stateMutability": "view",
      "type": "function"
    },
    {
      "inputs": [],
      "name": "owner",
      "outputs": [
        {
          "internalType": "address",
          "name": "",
          "type": "address"
        }
      ],
      "stateMutability": "view",
      "type": "function"
    },
    {
      "inputs": [
        {
          "internalType": "uint256",
          "name": "_idx",
          "type": "uint256"
        }
      ],
      "name": "pauseItem",
      "outputs": [],
      "stateMutability": "nonpayable",
      "type": "function"
    },
    {
      "inputs": [
        {
          "internalType": "uint256",
          "name": "",
          "type": "uint256"
        },
        {
          "internalType": "uint256",
          "name": "",
          "type": "uint256"
        }
      ],
      "name": "rewardWeights",
      "outputs": [
        {
          "internalType": "uint256",
          "name": "",
          "type": "uint256"
        }
      ],
      "stateMutability": "view",
      "type": "function"
    },
    {
      "inputs": [
        {
          "internalType": "address",
          "name": "_wallet",
          "type": "address"
        },
        {
          "internalType": "bool",
          "name": "status",
          "type": "bool"
        }
      ],
      "name": "setBlacklist",
      "outputs": [],
      "stateMutability": "nonpayable",
      "type": "function"
    },
    {
      "inputs": [
        {
          "internalType": "address[]",
          "name": "_wallet",
          "type": "address[]"
        },
        {
          "internalType": "bool",
          "name": "status",
          "type": "bool"
        }
      ],
      "name": "setBulkBlacklist",
      "outputs": [],
      "stateMutability": "nonpayable",
      "type": "function"
    },
    {
      "inputs": [
        {
          "internalType": "address[]",
          "name": "_wallet",
          "type": "address[]"
        },
        {
          "internalType": "bool",
          "name": "status",
          "type": "bool"
        }
      ],
      "name": "setBulkWhitelist",
      "outputs": [],
      "stateMutability": "nonpayable",
      "type": "function"
    },
    {
      "inputs": [
        {
          "internalType": "address",
          "name": "_c2eContractAddress",
          "type": "address"
        }
      ],
      "name": "setC2eContractAddress",
      "outputs": [],
      "stateMutability": "nonpayable",
      "type": "function"
    },
    {
      "inputs": [
        {
          "internalType": "string",
          "name": "_hash",
          "type": "string"
        },
        {
          "internalType": "address",
          "name": "_wallet",
          "type": "address"
        }
      ],
      "name": "setGifticonAllocation",
      "outputs": [],
      "stateMutability": "nonpayable",
      "type": "function"
    },
    {
      "inputs": [
        {
          "internalType": "string",
          "name": "_hash",
          "type": "string"
        },
        {
          "internalType": "bool",
          "name": "_status",
          "type": "bool"
        }
      ],
      "name": "setGifticonIsUsed",
      "outputs": [],
      "stateMutability": "nonpayable",
      "type": "function"
    },
    {
      "inputs": [
        {
          "internalType": "uint256",
          "name": "_itemId",
          "type": "uint256"
        },
        {
          "internalType": "uint256[]",
          "name": "_weights",
          "type": "uint256[]"
        }
      ],
      "name": "setRewardWeights",
      "outputs": [],
      "stateMutability": "nonpayable",
      "type": "function"
    },
    {
      "inputs": [
        {
          "internalType": "uint256",
          "name": "_itemId",
          "type": "uint256"
        },
        {
          "internalType": "bool",
          "name": "_isSpecial",
          "type": "bool"
        }
      ],
      "name": "setSpecialItem",
      "outputs": [],
      "stateMutability": "nonpayable",
      "type": "function"
    },
    {
      "inputs": [
        {
          "internalType": "address",
          "name": "_wallet",
          "type": "address"
        },
        {
          "internalType": "bool",
          "name": "status",
          "type": "bool"
        }
      ],
      "name": "setWhitelist",
      "outputs": [],
      "stateMutability": "nonpayable",
      "type": "function"
    },
    {
      "inputs": [
        {
          "internalType": "uint256",
          "name": "_idx",
          "type": "uint256"
        },
        {
          "internalType": "uint256",
          "name": "_winningRate",
          "type": "uint256"
        }
      ],
      "name": "setWinningRateByIdx",
      "outputs": [],
      "stateMutability": "nonpayable",
      "type": "function"
    },
    {
      "inputs": [
        {
          "internalType": "address",
          "name": "_newManager",
          "type": "address"
        }
      ],
      "name": "transferManagership",
      "outputs": [],
      "stateMutability": "nonpayable",
      "type": "function"
    },
    {
      "inputs": [
        {
          "internalType": "address",
          "name": "_newOwner",
          "type": "address"
        }
      ],
      "name": "transferOwnership",
      "outputs": [],
      "stateMutability": "nonpayable",
      "type": "function"
    },
    {
      "inputs": [],
      "name": "turnOffWhitelistMode",
      "outputs": [],
      "stateMutability": "nonpayable",
      "type": "function"
    },
    {
      "inputs": [],
      "name": "turnOnWhitelistMode",
      "outputs": [],
      "stateMutability": "nonpayable",
      "type": "function"
    },
    {
      "inputs": [
        {
          "internalType": "uint256",
          "name": "_idx",
          "type": "uint256"
        }
      ],
      "name": "unpauseItem",
      "outputs": [],
      "stateMutability": "nonpayable",
      "type": "function"
    },
    {
      "inputs": [
        {
          "internalType": "uint256",
          "name": "_amount",
          "type": "uint256"
        }
      ],
      "name": "withdraw",
      "outputs": [],
      "stateMutability": "nonpayable",
      "type": "function"
    },
    {
      "inputs": [
        {
          "internalType": "address",
          "name": "_contractAddress",
          "type": "address"
        },
        {
          "internalType": "uint256",
          "name": "_tokenId",
          "type": "uint256"
        }
      ],
      "name": "withdrawNFT",
      "outputs": [],
      "stateMutability": "nonpayable",
      "type": "function"
    },
    {
      "inputs": [
        {
          "internalType": "address",
          "name": "_contractAddress",
          "type": "address"
        },
        {
          "internalType": "uint256",
          "name": "_amount",
          "type": "uint256"
        }
      ],
      "name": "withdrawToken",
      "outputs": [],
      "stateMutability": "nonpayable",
      "type": "function"
    },
    {
      "stateMutability": "payable",
      "type": "receive"
    }
  ],
  "bytecode": "0x60806040526000600160146101000a81548160ff021916908315150217905550600060035534801561003057600080fd5b50336000806101000a81548173ffffffffffffffffffffffffffffffffffffffff021916908373ffffffffffffffffffffffffffffffffffffffff16021790555033600160006101000a81548173ffffffffffffffffffffffffffffffffffffffff021916908373ffffffffffffffffffffffffffffffffffffffff160217905550615386806100c16000396000f3fe6080604052600436106102815760003560e01c8063609167c61161014f578063a2a95505116100c1578063c98ce49a1161007a578063c98ce49a14610a2a578063ccc3990914610a53578063dee23b4814610a7c578063ec1f812114610aa5578063f111fb1c14610ace578063f2fde38b14610af7576102c1565b8063a2a95505146108f8578063adeb126c14610921578063b2eb9afd1461095e578063b90bc51914610987578063c0d8012c146109c4578063c71ebd3814610a01576102c1565b8063859c89ab11610113578063859c89ab146107ec5780638da5cb5b146108155780639a02d7cf146108405780639b5b9b18146108695780639c185085146108925780639e281a98146108cf576102c1565b8063609167c61461071b5780636f7b1435146107325780637942002a1461076f5780637e1f3d96146107985780637f7e986c146107c1576102c1565b80633892beff116101f35780634e76d5b7116101ac5780634e76d5b7146106235780634f466c001461063a57806353d6fd591461067757806359f26621146106a05780635dc1f424146106c95780636088e93a146106f2576102c1565b80633892beff146104ed5780633fbdc67d1461052a5780634362bca514610567578063481c6a7514610592578063485a2cf5146105bd5780634a85a3b1146105fa576102c1565b80631f7920d3116102455780631f7920d3146103bb578063213216e4146103e45780632e1a7d4d1461042157806330edc0f51461044a5780633129e77314610487578063338b5dea146104c4576102c1565b806304e71c3c146102c6578063079d9902146102ef5780630aa4c3e41461032c578063153b0d1e146103695780631a8876ff14610392576102c1565b366102c1577f88a5966d370b9919b20f3e2c13ff65706f196a4e32cc2c12bf57088f8852587433346040516102b792919061396a565b60405180910390a1005b600080fd5b3480156102d257600080fd5b506102ed60048036038101906102e89190613b2c565b610b20565b005b3480156102fb57600080fd5b5061031660048036038101906103119190613b88565b610c04565b6040516103239190613c73565b60405180910390f35b34801561033857600080fd5b50610353600480360381019061034e9190613b88565b610c6f565b6040516103609190613c95565b60405180910390f35b34801561037557600080fd5b50610390600480360381019061038b9190613d14565b610c8f565b005b34801561039e57600080fd5b506103b960048036038101906103b49190613e71565b610d42565b005b3480156103c757600080fd5b506103e260048036038101906103dd9190613f7d565b610e80565b005b3480156103f057600080fd5b5061040b60048036038101906104069190613b88565b610f6d565b60405161041891906140d3565b60405180910390f35b34801561042d57600080fd5b5061044860048036038101906104439190613b88565b611a67565b005b34801561045657600080fd5b50610471600480360381019061046c91906140f5565b611b09565b60405161047e9190614131565b60405180910390f35b34801561049357600080fd5b506104ae60048036038101906104a99190613b88565b611b5f565b6040516104bb91906141b0565b60405180910390f35b3480156104d057600080fd5b506104eb60048036038101906104e691906141cb565b611bc5565b005b3480156104f957600080fd5b50610514600480360381019061050f9190613b88565b611ca8565b6040516105219190614131565b60405180910390f35b34801561053657600080fd5b50610551600480360381019061054c91906140f5565b611cc8565b60405161055e9190614131565b60405180910390f35b34801561057357600080fd5b5061057c611d1e565b6040516105899190613c95565b60405180910390f35b34801561059e57600080fd5b506105a7611d28565b6040516105b4919061420b565b60405180910390f35b3480156105c957600080fd5b506105e460048036038101906105df91906142db565b611d4e565b6040516105f19190614131565b60405180910390f35b34801561060657600080fd5b50610621600480360381019061061c9190613b88565b611d83565b005b34801561062f57600080fd5b50610638611e0d565b005b34801561064657600080fd5b50610661600480360381019061065c9190614324565b611e82565b60405161066e9190613c95565b60405180910390f35b34801561068357600080fd5b5061069e60048036038101906106999190613d14565b611eb3565b005b3480156106ac57600080fd5b506106c760048036038101906106c29190614364565b611f66565b005b3480156106d557600080fd5b506106f060048036038101906106eb9190614519565b611fed565b005b3480156106fe57600080fd5b50610719600480360381019061071491906141cb565b61213a565b005b34801561072757600080fd5b5061073061220b565b005b34801561073e57600080fd5b5061075960048036038101906107549190614324565b61227f565b6040516107669190613c95565b60405180910390f35b34801561077b57600080fd5b5061079660048036038101906107919190613b88565b6123ce565b005b3480156107a457600080fd5b506107bf60048036038101906107ba9190614575565b612458565b005b3480156107cd57600080fd5b506107d661256b565b6040516107e3919061420b565b60405180910390f35b3480156107f857600080fd5b50610813600480360381019061080e9190613e71565b612595565b005b34801561082157600080fd5b5061082a6126c1565b604051610837919061420b565b60405180910390f35b34801561084c57600080fd5b5061086760048036038101906108629190614324565b6126e5565b005b34801561087557600080fd5b50610890600480360381019061088b91906141cb565b61275c565b005b34801561089e57600080fd5b506108b960048036038101906108b49190613b88565b61282d565b6040516108c69190614131565b60405180910390f35b3480156108db57600080fd5b506108f660048036038101906108f191906141cb565b61285a565b005b34801561090457600080fd5b5061091f600480360381019061091a91906145d1565b61293d565b005b34801561092d57600080fd5b50610948600480360381019061094391906142db565b612a27565b604051610955919061420b565b60405180910390f35b34801561096a57600080fd5b5061098560048036038101906109809190613f7d565b612a6f565b005b34801561099357600080fd5b506109ae60048036038101906109a99190614324565b612b5c565b6040516109bb91906140d3565b60405180910390f35b3480156109d057600080fd5b506109eb60048036038101906109e69190613b88565b612cfe565b6040516109f89190614752565b60405180910390f35b348015610a0d57600080fd5b50610a286004803603810190610a239190614324565b612ec4565b005b348015610a3657600080fd5b50610a516004803603810190610a4c9190613e71565b612f7f565b005b348015610a5f57600080fd5b50610a7a6004803603810190610a7591906140f5565b6130bd565b005b348015610a8857600080fd5b50610aa36004803603810190610a9e9190613e71565b6131eb565b005b348015610ab157600080fd5b50610acc6004803603810190610ac79190614774565b613317565b005b348015610ada57600080fd5b50610af56004803603810190610af091906140f5565b6133d0565b005b348015610b0357600080fd5b50610b1e6004803603810190610b1991906140f5565b6134dc565b005b60008054906101000a900473ffffffffffffffffffffffffffffffffffffffff1673ffffffffffffffffffffffffffffffffffffffff163373ffffffffffffffffffffffffffffffffffffffff1614610b7857600080fd5b6007600083815260200190815260200160002060009054906101000a900460ff16610bd8576040517f08c379a0000000000000000000000000000000000000000000000000000000008152600401610bcf90614853565b60405180910390fd5b80600660008481526020019081526020016000209080519060200190610bff9291906137b8565b505050565b606060066000838152602001908152602001600020805480602002602001604051908101604052809291908181526020018280548015610c6357602002820191906000526020600020905b815481526020019060010190808311610c4f575b50505050509050919050565b600060046000838152602001908152602001600020600301549050919050565b60008054906101000a900473ffffffffffffffffffffffffffffffffffffffff1673ffffffffffffffffffffffffffffffffffffffff163373ffffffffffffffffffffffffffffffffffffffff1614610ce757600080fd5b80600b60008473ffffffffffffffffffffffffffffffffffffffff1673ffffffffffffffffffffffffffffffffffffffff16815260200190815260200160002060006101000a81548160ff0219169083151502179055505050565b60008054906101000a900473ffffffffffffffffffffffffffffffffffffffff1673ffffffffffffffffffffffffffffffffffffffff163373ffffffffffffffffffffffffffffffffffffffff1614610d9a57600080fd5b60005b8151811015610e7c576000828281518110610dbb57610dba614873565b5b60200260200101516000015190508073ffffffffffffffffffffffffffffffffffffffff166323b872dd3330868681518110610dfa57610df9614873565b5b6020026020010151602001516040518463ffffffff1660e01b8152600401610e24939291906148a2565b6020604051808303816000875af1158015610e43573d6000803e3d6000fd5b505050506040513d601f19601f82011682018060405250810190610e6791906148ee565b50508080610e749061494a565b915050610d9d565b5050565b60008054906101000a900473ffffffffffffffffffffffffffffffffffffffff1673ffffffffffffffffffffffffffffffffffffffff163373ffffffffffffffffffffffffffffffffffffffff1614610ed857600080fd5b60005b8251811015610f685781600b6000858481518110610efc57610efb614873565b5b602002602001015173ffffffffffffffffffffffffffffffffffffffff1673ffffffffffffffffffffffffffffffffffffffff16815260200190815260200160002060006101000a81548160ff0219169083151502179055508080610f609061494a565b915050610edb565b505050565b610f75613805565b6003548210610fb9576040517f08c379a0000000000000000000000000000000000000000000000000000000008152600401610fb0906149df565b60405180910390fd5b600b60003373ffffffffffffffffffffffffffffffffffffffff1673ffffffffffffffffffffffffffffffffffffffff16815260200190815260200160002060009054906101000a900460ff1615611046576040517f08c379a000000000000000000000000000000000000000000000000000000000815260040161103d90614a4b565b60405180910390fd5b6004600083815260200190815260200160002060010160009054906101000a900460ff166110a9576040517f08c379a00000000000000000000000000000000000000000000000000000000081526004016110a090614ab7565b60405180910390fd5b600160149054906101000a900460ff161561114b57600a60003373ffffffffffffffffffffffffffffffffffffffff1673ffffffffffffffffffffffffffffffffffffffff16815260200190815260200160002060009054906101000a900460ff1661114a576040517f08c379a000000000000000000000000000000000000000000000000000000000815260040161114190614b23565b60405180910390fd5b5b6000600260009054906101000a900473ffffffffffffffffffffffffffffffffffffffff16905060046000848152602001908152602001600020600001548173ffffffffffffffffffffffffffffffffffffffff1663dd62ed3e33306040518363ffffffff1660e01b81526004016111c4929190614b43565b602060405180830381865afa1580156111e1573d6000803e3d6000fd5b505050506040513d601f19601f820116820180604052508101906112059190614b81565b1015611246576040517f08c379a000000000000000000000000000000000000000000000000000000000815260040161123d90614bfa565b60405180910390fd5b8073ffffffffffffffffffffffffffffffffffffffff166323b872dd333060046000888152602001908152602001600020600001546040518463ffffffff1660e01b8152600401611299939291906148a2565b6020604051808303816000875af11580156112b8573d6000803e3d6000fd5b505050506040513d601f19601f820116820180604052508101906112dc91906148ee565b506007600084815260200190815260200160002060009054906101000a900460ff161561150e57600061130e846135b1565b905060056000858152602001908152602001600020805490508110611368576040517f08c379a000000000000000000000000000000000000000000000000000000000815260040161135f90614c66565b60405180910390fd5b600060056000868152602001908152602001600020828154811061138f5761138e614873565b5b9060005260206000209060040201604051806080016040529081600082015481526020016001820160009054906101000a900473ffffffffffffffffffffffffffffffffffffffff1673ffffffffffffffffffffffffffffffffffffffff1673ffffffffffffffffffffffffffffffffffffffff1681526020016002820154815260200160038201805461142290614cb5565b80601f016020809104026020016040519081016040528092919081815260200182805461144e90614cb5565b801561149b5780601f106114705761010080835404028352916020019161149b565b820191906000526020600020905b81548152906001019060200180831161147e57829003601f168201915b50505050508152505090503373ffffffffffffffffffffffffffffffffffffffff167febc10c637ccf4a49487265390b2e86c62add55e80791302fc62429a405505853866001846000015185606001516040516114fb9493929190614d92565b60405180910390a2809350505050611a62565b600560008481526020019081526020016000208054905060046000858152602001908152602001600020600201541061157c576040517f08c379a000000000000000000000000000000000000000000000000000000000815260040161157390614e3d565b60405180910390fd5b6000600560008581526020019081526020016000206004600086815260200190815260200160002060020154815481106115b9576115b8614873565b5b9060005260206000209060040201604051806080016040529081600082015481526020016001820160009054906101000a900473ffffffffffffffffffffffffffffffffffffffff1673ffffffffffffffffffffffffffffffffffffffff1673ffffffffffffffffffffffffffffffffffffffff1681526020016002820154815260200160038201805461164c90614cb5565b80601f016020809104026020016040519081016040528092919081815260200182805461167890614cb5565b80156116c55780601f1061169a576101008083540402835291602001916116c5565b820191906000526020600020905b8154815290600101906020018083116116a857829003601f168201915b505050505081525050905060046000858152602001908152602001600020600301546116ef613777565b10156119bd57600181600001511415611796576000816020015190508073ffffffffffffffffffffffffffffffffffffffff166323b872dd303385604001516040518463ffffffff1660e01b815260040161174c939291906148a2565b6020604051808303816000875af115801561176b573d6000803e3d6000fd5b505050506040513d601f19601f8201168201806040525081019061178f91906148ee565b505061198c565b6002816000015114156118a1576000600882606001516040516117b99190614e99565b908152602001604051809103902060006101000a81548160ff02191690831515021790555033600982606001516040516117f39190614e99565b908152602001604051809103902060006101000a81548173ffffffffffffffffffffffffffffffffffffffff021916908373ffffffffffffffffffffffffffffffffffffffff1602179055503373ffffffffffffffffffffffffffffffffffffffff167febc10c637ccf4a49487265390b2e86c62add55e80791302fc62429a405505853856001846000015185606001516040516118949493929190614d92565b60405180910390a261198b565b600381600001511415611930576000816020015190508073ffffffffffffffffffffffffffffffffffffffff166323b872dd303385604001516040518463ffffffff1660e01b81526004016118f8939291906148a2565b600060405180830381600087803b15801561191257600080fd5b505af1158015611926573d6000803e3d6000fd5b505050505061198a565b600481600001511415611989573373ffffffffffffffffffffffffffffffffffffffff166108fc82604001519081150290604051600060405180830381858888f19350505050158015611987573d6000803e3d6000fd5b505b5b5b5b6004600085815260200190815260200160002060020160008154809291906119b39061494a565b9190505550611a5c565b3373ffffffffffffffffffffffffffffffffffffffff167febc10c637ccf4a49487265390b2e86c62add55e80791302fc62429a40550585385600080604051611a0893929190614f67565b60405180910390a2604051806080016040528060008152602001600073ffffffffffffffffffffffffffffffffffffffff168152602001600081526020016040518060200160405280600081525081525090505b80925050505b919050565b60008054906101000a900473ffffffffffffffffffffffffffffffffffffffff1673ffffffffffffffffffffffffffffffffffffffff163373ffffffffffffffffffffffffffffffffffffffff1614611abf57600080fd5b3373ffffffffffffffffffffffffffffffffffffffff166108fc829081150290604051600060405180830381858888f19350505050158015611b05573d6000803e3d6000fd5b5050565b6000600a60008373ffffffffffffffffffffffffffffffffffffffff1673ffffffffffffffffffffffffffffffffffffffff16815260200190815260200160002060009054906101000a900460ff169050919050565b611b67613843565b60046000838152602001908152602001600020604051806080016040529081600082015481526020016001820160009054906101000a900460ff16151515158152602001600282015481526020016003820154815250509050919050565b60008054906101000a900473ffffffffffffffffffffffffffffffffffffffff1673ffffffffffffffffffffffffffffffffffffffff163373ffffffffffffffffffffffffffffffffffffffff1614611c1d57600080fd5b60008290508073ffffffffffffffffffffffffffffffffffffffff166323b872dd3330856040518463ffffffff1660e01b8152600401611c5f939291906148a2565b6020604051808303816000875af1158015611c7e573d6000803e3d6000fd5b505050506040513d601f19601f82011682018060405250810190611ca291906148ee565b50505050565b60076020528060005260406000206000915054906101000a900460ff1681565b6000600b60008373ffffffffffffffffffffffffffffffffffffffff1673ffffffffffffffffffffffffffffffffffffffff16815260200190815260200160002060009054906101000a900460ff169050919050565b6000600354905090565b600160009054906101000a900473ffffffffffffffffffffffffffffffffffffffff1681565b6000600882604051611d609190614e99565b908152602001604051809103902060009054906101000a900460ff169050919050565b60008054906101000a900473ffffffffffffffffffffffffffffffffffffffff1673ffffffffffffffffffffffffffffffffffffffff163373ffffffffffffffffffffffffffffffffffffffff1614611ddb57600080fd5b60016004600083815260200190815260200160002060010160006101000a81548160ff02191690831515021790555050565b60008054906101000a900473ffffffffffffffffffffffffffffffffffffffff1673ffffffffffffffffffffffffffffffffffffffff163373ffffffffffffffffffffffffffffffffffffffff1614611e6557600080fd5b6000600160146101000a81548160ff021916908315150217905550565b60066020528160005260406000208181548110611e9e57600080fd5b90600052602060002001600091509150505481565b60008054906101000a900473ffffffffffffffffffffffffffffffffffffffff1673ffffffffffffffffffffffffffffffffffffffff163373ffffffffffffffffffffffffffffffffffffffff1614611f0b57600080fd5b80600a60008473ffffffffffffffffffffffffffffffffffffffff1673ffffffffffffffffffffffffffffffffffffffff16815260200190815260200160002060006101000a81548160ff0219169083151502179055505050565b60008054906101000a900473ffffffffffffffffffffffffffffffffffffffff1673ffffffffffffffffffffffffffffffffffffffff163373ffffffffffffffffffffffffffffffffffffffff1614611fbe57600080fd5b806007600084815260200190815260200160002060006101000a81548160ff0219169083151502179055505050565b60008054906101000a900473ffffffffffffffffffffffffffffffffffffffff1673ffffffffffffffffffffffffffffffffffffffff163373ffffffffffffffffffffffffffffffffffffffff161461204557600080fd5b60005b8151811015612135576005600084815260200190815260200160002082828151811061207757612076614873565b5b602002602001015190806001815401808255809150506001900390600052602060002090600402016000909190919091506000820151816000015560208201518160010160006101000a81548173ffffffffffffffffffffffffffffffffffffffff021916908373ffffffffffffffffffffffffffffffffffffffff16021790555060408201518160020155606082015181600301908051906020019061211f92919061386d565b505050808061212d9061494a565b915050612048565b505050565b60008054906101000a900473ffffffffffffffffffffffffffffffffffffffff1673ffffffffffffffffffffffffffffffffffffffff163373ffffffffffffffffffffffffffffffffffffffff161461219257600080fd5b60008290508073ffffffffffffffffffffffffffffffffffffffff166323b872dd3033856040518463ffffffff1660e01b81526004016121d4939291906148a2565b600060405180830381600087803b1580156121ee57600080fd5b505af1158015612202573d6000803e3d6000fd5b50505050505050565b60008054906101000a900473ffffffffffffffffffffffffffffffffffffffff1673ffffffffffffffffffffffffffffffffffffffff163373ffffffffffffffffffffffffffffffffffffffff161461226357600080fd5b60018060146101000a81548160ff021916908315150217905550565b60008060009054906101000a900473ffffffffffffffffffffffffffffffffffffffff1673ffffffffffffffffffffffffffffffffffffffff163373ffffffffffffffffffffffffffffffffffffffff16146122da57600080fd5b606482111561231e576040517f08c379a000000000000000000000000000000000000000000000000000000000815260040161231590615010565b60405180910390fd5b6000604051806080016040528085815260200160011515815260200160008152602001848152509050806004600060035481526020019081526020016000206000820151816000015560208201518160010160006101000a81548160ff0219169083151502179055506040820151816002015560608201518160030155905050600360008154809291906123b19061494a565b919050555060016003546123c59190615030565b91505092915050565b60008054906101000a900473ffffffffffffffffffffffffffffffffffffffff1673ffffffffffffffffffffffffffffffffffffffff163373ffffffffffffffffffffffffffffffffffffffff161461242657600080fd5b60006004600083815260200190815260200160002060010160006101000a81548160ff02191690831515021790555050565b60008054906101000a900473ffffffffffffffffffffffffffffffffffffffff1673ffffffffffffffffffffffffffffffffffffffff163373ffffffffffffffffffffffffffffffffffffffff16146124b057600080fd5b600560008381526020019081526020016000208190806001815401808255809150506001900390600052602060002090600402016000909190919091506000820151816000015560208201518160010160006101000a81548173ffffffffffffffffffffffffffffffffffffffff021916908373ffffffffffffffffffffffffffffffffffffffff16021790555060408201518160020155606082015181600301908051906020019061256492919061386d565b5050505050565b6000600260009054906101000a900473ffffffffffffffffffffffffffffffffffffffff16905090565b60008054906101000a900473ffffffffffffffffffffffffffffffffffffffff1673ffffffffffffffffffffffffffffffffffffffff163373ffffffffffffffffffffffffffffffffffffffff16146125ed57600080fd5b60005b81518110156126bd57600082828151811061260e5761260d614873565b5b60200260200101516000015190508073ffffffffffffffffffffffffffffffffffffffff166323b872dd303386868151811061264d5761264c614873565b5b6020026020010151602001516040518463ffffffff1660e01b8152600401612677939291906148a2565b600060405180830381600087803b15801561269157600080fd5b505af11580156126a5573d6000803e3d6000fd5b505050505080806126b59061494a565b9150506125f0565b5050565b60008054906101000a900473ffffffffffffffffffffffffffffffffffffffff1681565b60008054906101000a900473ffffffffffffffffffffffffffffffffffffffff1673ffffffffffffffffffffffffffffffffffffffff163373ffffffffffffffffffffffffffffffffffffffff161461273d57600080fd5b8060046000848152602001908152602001600020600001819055505050565b60008054906101000a900473ffffffffffffffffffffffffffffffffffffffff1673ffffffffffffffffffffffffffffffffffffffff163373ffffffffffffffffffffffffffffffffffffffff16146127b457600080fd5b60008290508073ffffffffffffffffffffffffffffffffffffffff166323b872dd3330856040518463ffffffff1660e01b81526004016127f6939291906148a2565b600060405180830381600087803b15801561281057600080fd5b505af1158015612824573d6000803e3d6000fd5b50505050505050565b60006004600083815260200190815260200160002060010160009054906101000a900460ff169050919050565b60008054906101000a900473ffffffffffffffffffffffffffffffffffffffff1673ffffffffffffffffffffffffffffffffffffffff163373ffffffffffffffffffffffffffffffffffffffff16146128b257600080fd5b60008290508073ffffffffffffffffffffffffffffffffffffffff166323b872dd3033856040518463ffffffff1660e01b81526004016128f4939291906148a2565b6020604051808303816000875af1158015612913573d6000803e3d6000fd5b505050506040513d601f19601f8201168201806040525081019061293791906148ee565b50505050565b600160009054906101000a900473ffffffffffffffffffffffffffffffffffffffff1673ffffffffffffffffffffffffffffffffffffffff163373ffffffffffffffffffffffffffffffffffffffff1614806129e4575060008054906101000a900473ffffffffffffffffffffffffffffffffffffffff1673ffffffffffffffffffffffffffffffffffffffff163373ffffffffffffffffffffffffffffffffffffffff16145b6129ed57600080fd5b806008836040516129fe9190614e99565b908152602001604051809103902060006101000a81548160ff0219169083151502179055505050565b6000600982604051612a399190614e99565b908152602001604051809103902060009054906101000a900473ffffffffffffffffffffffffffffffffffffffff169050919050565b60008054906101000a900473ffffffffffffffffffffffffffffffffffffffff1673ffffffffffffffffffffffffffffffffffffffff163373ffffffffffffffffffffffffffffffffffffffff1614612ac757600080fd5b60005b8251811015612b575781600a6000858481518110612aeb57612aea614873565b5b602002602001015173ffffffffffffffffffffffffffffffffffffffff1673ffffffffffffffffffffffffffffffffffffffff16815260200190815260200160002060006101000a81548160ff0219169083151502179055508080612b4f9061494a565b915050612aca565b505050565b612b64613805565b60008054906101000a900473ffffffffffffffffffffffffffffffffffffffff1673ffffffffffffffffffffffffffffffffffffffff163373ffffffffffffffffffffffffffffffffffffffff1614612bbc57600080fd5b600560008481526020019081526020016000208281548110612be157612be0614873565b5b9060005260206000209060040201604051806080016040529081600082015481526020016001820160009054906101000a900473ffffffffffffffffffffffffffffffffffffffff1673ffffffffffffffffffffffffffffffffffffffff1673ffffffffffffffffffffffffffffffffffffffff16815260200160028201548152602001600382018054612c7490614cb5565b80601f0160208091040260200160405190810160405280929190818152602001828054612ca090614cb5565b8015612ced5780601f10612cc257610100808354040283529160200191612ced565b820191906000526020600020905b815481529060010190602001808311612cd057829003601f168201915b505050505081525050905092915050565b606060008054906101000a900473ffffffffffffffffffffffffffffffffffffffff1673ffffffffffffffffffffffffffffffffffffffff163373ffffffffffffffffffffffffffffffffffffffff1614612d5857600080fd5b60056000838152602001908152602001600020805480602002602001604051908101604052809291908181526020016000905b82821015612eb95783829060005260206000209060040201604051806080016040529081600082015481526020016001820160009054906101000a900473ffffffffffffffffffffffffffffffffffffffff1673ffffffffffffffffffffffffffffffffffffffff1673ffffffffffffffffffffffffffffffffffffffff16815260200160028201548152602001600382018054612e2890614cb5565b80601f0160208091040260200160405190810160405280929190818152602001828054612e5490614cb5565b8015612ea15780601f10612e7657610100808354040283529160200191612ea1565b820191906000526020600020905b815481529060010190602001808311612e8457829003601f168201915b50505050508152505081526020019060010190612d8b565b505050509050919050565b60008054906101000a900473ffffffffffffffffffffffffffffffffffffffff1673ffffffffffffffffffffffffffffffffffffffff163373ffffffffffffffffffffffffffffffffffffffff1614612f1c57600080fd5b6064811115612f60576040517f08c379a0000000000000000000000000000000000000000000000000000000008152600401612f5790615010565b60405180910390fd5b8060046000848152602001908152602001600020600301819055505050565b60008054906101000a900473ffffffffffffffffffffffffffffffffffffffff1673ffffffffffffffffffffffffffffffffffffffff163373ffffffffffffffffffffffffffffffffffffffff1614612fd757600080fd5b60005b81518110156130b9576000828281518110612ff857612ff7614873565b5b60200260200101516000015190508073ffffffffffffffffffffffffffffffffffffffff166323b872dd303386868151811061303757613036614873565b5b6020026020010151602001516040518463ffffffff1660e01b8152600401613061939291906148a2565b6020604051808303816000875af1158015613080573d6000803e3d6000fd5b505050506040513d601f19601f820116820180604052508101906130a491906148ee565b505080806130b19061494a565b915050612fda565b5050565b600160009054906101000a900473ffffffffffffffffffffffffffffffffffffffff1673ffffffffffffffffffffffffffffffffffffffff163373ffffffffffffffffffffffffffffffffffffffff161480613164575060008054906101000a900473ffffffffffffffffffffffffffffffffffffffff1673ffffffffffffffffffffffffffffffffffffffff163373ffffffffffffffffffffffffffffffffffffffff16145b61316d57600080fd5b600073ffffffffffffffffffffffffffffffffffffffff168173ffffffffffffffffffffffffffffffffffffffff1614156131a757600080fd5b80600160006101000a81548173ffffffffffffffffffffffffffffffffffffffff021916908373ffffffffffffffffffffffffffffffffffffffff16021790555050565b60008054906101000a900473ffffffffffffffffffffffffffffffffffffffff1673ffffffffffffffffffffffffffffffffffffffff163373ffffffffffffffffffffffffffffffffffffffff161461324357600080fd5b60005b815181101561331357600082828151811061326457613263614873565b5b60200260200101516000015190508073ffffffffffffffffffffffffffffffffffffffff166323b872dd33308686815181106132a3576132a2614873565b5b6020026020010151602001516040518463ffffffff1660e01b81526004016132cd939291906148a2565b600060405180830381600087803b1580156132e757600080fd5b505af11580156132fb573d6000803e3d6000fd5b5050505050808061330b9061494a565b915050613246565b5050565b60008054906101000a900473ffffffffffffffffffffffffffffffffffffffff1673ffffffffffffffffffffffffffffffffffffffff163373ffffffffffffffffffffffffffffffffffffffff161461336f57600080fd5b806009836040516133809190614e99565b908152602001604051809103902060006101000a81548173ffffffffffffffffffffffffffffffffffffffff021916908373ffffffffffffffffffffffffffffffffffffffff1602179055505050565b60008054906101000a900473ffffffffffffffffffffffffffffffffffffffff1673ffffffffffffffffffffffffffffffffffffffff163373ffffffffffffffffffffffffffffffffffffffff161461342857600080fd5b600073ffffffffffffffffffffffffffffffffffffffff168173ffffffffffffffffffffffffffffffffffffffff161415613498576040517f08c379a000000000000000000000000000000000000000000000000000000000815260040161348f906150b0565b60405180910390fd5b80600260006101000a81548173ffffffffffffffffffffffffffffffffffffffff021916908373ffffffffffffffffffffffffffffffffffffffff16021790555050565b60008054906101000a900473ffffffffffffffffffffffffffffffffffffffff1673ffffffffffffffffffffffffffffffffffffffff163373ffffffffffffffffffffffffffffffffffffffff161461353457600080fd5b600073ffffffffffffffffffffffffffffffffffffffff168173ffffffffffffffffffffffffffffffffffffffff16141561356e57600080fd5b806000806101000a81548173ffffffffffffffffffffffffffffffffffffffff021916908373ffffffffffffffffffffffffffffffffffffffff16021790555050565b60006007600083815260200190815260200160002060009054906101000a900460ff16613613576040517f08c379a000000000000000000000000000000000000000000000000000000000815260040161360a90615142565b60405180910390fd5b60006006600084815260200190815260200160002080548060200260200160405190810160405280929190818152602001828054801561367257602002820191906000526020600020905b81548152602001906001019080831161365e575b505050505090506000805b82518110156136c15782818151811061369957613698614873565b5b6020026020010151826136ac9190615162565b915080806136b99061494a565b91505061367d565b506000816136cd613777565b6136d791906151e7565b90506000805b8451811015613736578481815181106136f9576136f8614873565b5b60200260200101518261370c9190615162565b915081831015613723578095505050505050613772565b808061372e9061494a565b9150506136dd565b506040517f08c379a00000000000000000000000000000000000000000000000000000000081526004016137699061528a565b60405180910390fd5b919050565b6000606444423360405160200161379093929190615313565b6040516020818303038152906040528051906020012060001c6137b391906151e7565b905090565b8280548282559060005260206000209081019282156137f4579160200282015b828111156137f35782518255916020019190600101906137d8565b5b50905061380191906138f3565b5090565b604051806080016040528060008152602001600073ffffffffffffffffffffffffffffffffffffffff16815260200160008152602001606081525090565b60405180608001604052806000815260200160001515815260200160008152602001600081525090565b82805461387990614cb5565b90600052602060002090601f01602090048101928261389b57600085556138e2565b82601f106138b457805160ff19168380011785556138e2565b828001600101855582156138e2579182015b828111156138e15782518255916020019190600101906138c6565b5b5090506138ef91906138f3565b5090565b5b8082111561390c5760008160009055506001016138f4565b5090565b600073ffffffffffffffffffffffffffffffffffffffff82169050919050565b600061393b82613910565b9050919050565b61394b81613930565b82525050565b6000819050919050565b61396481613951565b82525050565b600060408201905061397f6000830185613942565b61398c602083018461395b565b9392505050565b6000604051905090565b600080fd5b600080fd5b6139b081613951565b81146139bb57600080fd5b50565b6000813590506139cd816139a7565b92915050565b600080fd5b6000601f19601f8301169050919050565b7f4e487b7100000000000000000000000000000000000000000000000000000000600052604160045260246000fd5b613a21826139d8565b810181811067ffffffffffffffff82111715613a4057613a3f6139e9565b5b80604052505050565b6000613a53613993565b9050613a5f8282613a18565b919050565b600067ffffffffffffffff821115613a7f57613a7e6139e9565b5b602082029050602081019050919050565b600080fd5b6000613aa8613aa384613a64565b613a49565b90508083825260208201905060208402830185811115613acb57613aca613a90565b5b835b81811015613af45780613ae088826139be565b845260208401935050602081019050613acd565b5050509392505050565b600082601f830112613b1357613b126139d3565b5b8135613b23848260208601613a95565b91505092915050565b60008060408385031215613b4357613b4261399d565b5b6000613b51858286016139be565b925050602083013567ffffffffffffffff811115613b7257613b716139a2565b5b613b7e85828601613afe565b9150509250929050565b600060208284031215613b9e57613b9d61399d565b5b6000613bac848285016139be565b91505092915050565b600081519050919050565b600082825260208201905092915050565b6000819050602082019050919050565b613bea81613951565b82525050565b6000613bfc8383613be1565b60208301905092915050565b6000602082019050919050565b6000613c2082613bb5565b613c2a8185613bc0565b9350613c3583613bd1565b8060005b83811015613c66578151613c4d8882613bf0565b9750613c5883613c08565b925050600181019050613c39565b5085935050505092915050565b60006020820190508181036000830152613c8d8184613c15565b905092915050565b6000602082019050613caa600083018461395b565b92915050565b613cb981613930565b8114613cc457600080fd5b50565b600081359050613cd681613cb0565b92915050565b60008115159050919050565b613cf181613cdc565b8114613cfc57600080fd5b50565b600081359050613d0e81613ce8565b92915050565b60008060408385031215613d2b57613d2a61399d565b5b6000613d3985828601613cc7565b9250506020613d4a85828601613cff565b9150509250929050565b600067ffffffffffffffff821115613d6f57613d6e6139e9565b5b602082029050602081019050919050565b600080fd5b600080fd5b600060408284031215613da057613d9f613d80565b5b613daa6040613a49565b90506000613dba84828501613cc7565b6000830152506020613dce848285016139be565b60208301525092915050565b6000613ded613de884613d54565b613a49565b90508083825260208201905060408402830185811115613e1057613e0f613a90565b5b835b81811015613e395780613e258882613d8a565b845260208401935050604081019050613e12565b5050509392505050565b600082601f830112613e5857613e576139d3565b5b8135613e68848260208601613dda565b91505092915050565b600060208284031215613e8757613e8661399d565b5b600082013567ffffffffffffffff811115613ea557613ea46139a2565b5b613eb184828501613e43565b91505092915050565b600067ffffffffffffffff821115613ed557613ed46139e9565b5b602082029050602081019050919050565b6000613ef9613ef484613eba565b613a49565b90508083825260208201905060208402830185811115613f1c57613f1b613a90565b5b835b81811015613f455780613f318882613cc7565b845260208401935050602081019050613f1e565b5050509392505050565b600082601f830112613f6457613f636139d3565b5b8135613f74848260208601613ee6565b91505092915050565b60008060408385031215613f9457613f9361399d565b5b600083013567ffffffffffffffff811115613fb257613fb16139a2565b5b613fbe85828601613f4f565b9250506020613fcf85828601613cff565b9150509250929050565b613fe281613930565b82525050565b600081519050919050565b600082825260208201905092915050565b60005b83811015614022578082015181840152602081019050614007565b83811115614031576000848401525b50505050565b600061404282613fe8565b61404c8185613ff3565b935061405c818560208601614004565b614065816139d8565b840191505092915050565b60006080830160008301516140886000860182613be1565b50602083015161409b6020860182613fd9565b5060408301516140ae6040860182613be1565b50606083015184820360608601526140c68282614037565b9150508091505092915050565b600060208201905081810360008301526140ed8184614070565b905092915050565b60006020828403121561410b5761410a61399d565b5b600061411984828501613cc7565b91505092915050565b61412b81613cdc565b82525050565b60006020820190506141466000830184614122565b92915050565b61415581613cdc565b82525050565b6080820160008201516141716000850182613be1565b506020820151614184602085018261414c565b5060408201516141976040850182613be1565b5060608201516141aa6060850182613be1565b50505050565b60006080820190506141c5600083018461415b565b92915050565b600080604083850312156141e2576141e161399d565b5b60006141f085828601613cc7565b9250506020614201858286016139be565b9150509250929050565b60006020820190506142206000830184613942565b92915050565b600080fd5b600067ffffffffffffffff821115614246576142456139e9565b5b61424f826139d8565b9050602081019050919050565b82818337600083830152505050565b600061427e6142798461422b565b613a49565b90508281526020810184848401111561429a57614299614226565b5b6142a584828561425c565b509392505050565b600082601f8301126142c2576142c16139d3565b5b81356142d284826020860161426b565b91505092915050565b6000602082840312156142f1576142f061399d565b5b600082013567ffffffffffffffff81111561430f5761430e6139a2565b5b61431b848285016142ad565b91505092915050565b6000806040838503121561433b5761433a61399d565b5b6000614349858286016139be565b925050602061435a858286016139be565b9150509250929050565b6000806040838503121561437b5761437a61399d565b5b6000614389858286016139be565b925050602061439a85828601613cff565b9150509250929050565b600067ffffffffffffffff8211156143bf576143be6139e9565b5b602082029050602081019050919050565b6000608082840312156143e6576143e5613d80565b5b6143f06080613a49565b90506000614400848285016139be565b600083015250602061441484828501613cc7565b6020830152506040614428848285016139be565b604083015250606082013567ffffffffffffffff81111561444c5761444b613d85565b5b614458848285016142ad565b60608301525092915050565b6000614477614472846143a4565b613a49565b9050808382526020820190506020840283018581111561449a57614499613a90565b5b835b818110156144e157803567ffffffffffffffff8111156144bf576144be6139d3565b5b8086016144cc89826143d0565b8552602085019450505060208101905061449c565b5050509392505050565b600082601f830112614500576144ff6139d3565b5b8135614510848260208601614464565b91505092915050565b600080604083850312156145305761452f61399d565b5b600061453e858286016139be565b925050602083013567ffffffffffffffff81111561455f5761455e6139a2565b5b61456b858286016144eb565b9150509250929050565b6000806040838503121561458c5761458b61399d565b5b600061459a858286016139be565b925050602083013567ffffffffffffffff8111156145bb576145ba6139a2565b5b6145c7858286016143d0565b9150509250929050565b600080604083850312156145e8576145e761399d565b5b600083013567ffffffffffffffff811115614606576146056139a2565b5b614612858286016142ad565b925050602061462385828601613cff565b9150509250929050565b600081519050919050565b600082825260208201905092915050565b6000819050602082019050919050565b60006080830160008301516146716000860182613be1565b5060208301516146846020860182613fd9565b5060408301516146976040860182613be1565b50606083015184820360608601526146af8282614037565b9150508091505092915050565b60006146c88383614659565b905092915050565b6000602082019050919050565b60006146e88261462d565b6146f28185614638565b93508360208202850161470485614649565b8060005b85811015614740578484038952815161472185826146bc565b945061472c836146d0565b925060208a01995050600181019050614708565b50829750879550505050505092915050565b6000602082019050818103600083015261476c81846146dd565b905092915050565b6000806040838503121561478b5761478a61399d565b5b600083013567ffffffffffffffff8111156147a9576147a86139a2565b5b6147b5858286016142ad565b92505060206147c685828601613cc7565b9150509250929050565b600082825260208201905092915050565b7f43616e206f6e6c7920736574207765696768747320666f72207370656369616c60008201527f206974656d730000000000000000000000000000000000000000000000000000602082015250565b600061483d6026836147d0565b9150614848826147e1565b604082019050919050565b6000602082019050818103600083015261486c81614830565b9050919050565b7f4e487b7100000000000000000000000000000000000000000000000000000000600052603260045260246000fd5b60006060820190506148b76000830186613942565b6148c46020830185613942565b6148d1604083018461395b565b949350505050565b6000815190506148e881613ce8565b92915050565b6000602082840312156149045761490361399d565b5b6000614912848285016148d9565b91505092915050565b7f4e487b7100000000000000000000000000000000000000000000000000000000600052601160045260246000fd5b600061495582613951565b91507fffffffffffffffffffffffffffffffffffffffffffffffffffffffffffffffff8214156149885761498761491b565b5b600182019050919050565b7f496e76616c6964206974656d2069640000000000000000000000000000000000600082015250565b60006149c9600f836147d0565b91506149d482614993565b602082019050919050565b600060208201905081810360008301526149f8816149bc565b9050919050565b7f41636365737320666f7262696464656e00000000000000000000000000000000600082015250565b6000614a356010836147d0565b9150614a40826149ff565b602082019050919050565b60006020820190508181036000830152614a6481614a28565b9050919050565b7f54686973206974656d20697320636c6f73656420666f72206e6f770000000000600082015250565b6000614aa1601b836147d0565b9150614aac82614a6b565b602082019050919050565b60006020820190508181036000830152614ad081614a94565b9050919050565b7f4163636573732064656e69656400000000000000000000000000000000000000600082015250565b6000614b0d600d836147d0565b9150614b1882614ad7565b602082019050919050565b60006020820190508181036000830152614b3c81614b00565b9050919050565b6000604082019050614b586000830185613942565b614b656020830184613942565b9392505050565b600081519050614b7b816139a7565b92915050565b600060208284031215614b9757614b9661399d565b5b6000614ba584828501614b6c565b91505092915050565b7f417070726f766520796f757220746f6b656e2066697273740000000000000000600082015250565b6000614be46018836147d0565b9150614bef82614bae565b602082019050919050565b60006020820190508181036000830152614c1381614bd7565b9050919050565b7f52616e646f6d20696e646578206f7574206f6620626f756e6473000000000000600082015250565b6000614c50601a836147d0565b9150614c5b82614c1a565b602082019050919050565b60006020820190508181036000830152614c7f81614c43565b9050919050565b7f4e487b7100000000000000000000000000000000000000000000000000000000600052602260045260246000fd5b60006002820490506001821680614ccd57607f821691505b60208210811415614ce157614ce0614c86565b5b50919050565b6000614cf282613fe8565b614cfc81856147d0565b9350614d0c818560208601614004565b614d15816139d8565b840191505092915050565b7f436f6e67726174756c6174696f6e732120596f7520776f6e206120726577617260008201527f642e000000000000000000000000000000000000000000000000000000000000602082015250565b6000614d7c6022836147d0565b9150614d8782614d20565b604082019050919050565b600060a082019050614da7600083018761395b565b614db46020830186614122565b614dc1604083018561395b565b8181036060830152614dd38184614ce7565b90508181036080830152614de681614d6f565b905095945050505050565b7f536f6c64206f7574000000000000000000000000000000000000000000000000600082015250565b6000614e276008836147d0565b9150614e3282614df1565b602082019050919050565b60006020820190508181036000830152614e5681614e1a565b9050919050565b600081905092915050565b6000614e7382613fe8565b614e7d8185614e5d565b9350614e8d818560208601614004565b80840191505092915050565b6000614ea58284614e68565b915081905092915050565b6000819050919050565b6000819050919050565b6000614edf614eda614ed584614eb0565b614eba565b613951565b9050919050565b614eef81614ec4565b82525050565b50565b6000614f056000836147d0565b9150614f1082614ef5565b600082019050919050565b7f536f7272792c20626574746572206c75636b206e6578742074696d652e000000600082015250565b6000614f51601d836147d0565b9150614f5c82614f1b565b602082019050919050565b600060a082019050614f7c600083018661395b565b614f896020830185614122565b614f966040830184614ee6565b8181036060830152614fa781614ef8565b90508181036080830152614fba81614f44565b9050949350505050565b7f496e76616c69642077696e6e696e672072617465000000000000000000000000600082015250565b6000614ffa6014836147d0565b915061500582614fc4565b602082019050919050565b6000602082019050818103600083015261502981614fed565b9050919050565b600061503b82613951565b915061504683613951565b9250828210156150595761505861491b565b5b828203905092915050565b7f496e76616c696420616464726573730000000000000000000000000000000000600082015250565b600061509a600f836147d0565b91506150a582615064565b602082019050919050565b600060208201905081810360008301526150c98161508d565b9050919050565b7f46756e6374696f6e206973206f6e6c7920666f72207370656369616c2069746560008201527f6d73000000000000000000000000000000000000000000000000000000000000602082015250565b600061512c6022836147d0565b9150615137826150d0565b604082019050919050565b6000602082019050818103600083015261515b8161511f565b9050919050565b600061516d82613951565b915061517883613951565b9250827fffffffffffffffffffffffffffffffffffffffffffffffffffffffffffffffff038211156151ad576151ac61491b565b5b828201905092915050565b7f4e487b7100000000000000000000000000000000000000000000000000000000600052601260045260246000fd5b60006151f282613951565b91506151fd83613951565b92508261520d5761520c6151b8565b5b828206905092915050565b7f52616e646f6d526577617264496e6465783a204661696c656420746f2067657460008201527f20612076616c696420696e646578000000000000000000000000000000000000602082015250565b6000615274602e836147d0565b915061527f82615218565b604082019050919050565b600060208201905081810360008301526152a381615267565b9050919050565b6000819050919050565b6152c56152c082613951565b6152aa565b82525050565b60008160601b9050919050565b60006152e3826152cb565b9050919050565b60006152f5826152d8565b9050919050565b61530d61530882613930565b6152ea565b82525050565b600061531f82866152b4565b60208201915061532f82856152b4565b60208201915061533f82846152fc565b60148201915081905094935050505056fea2646970667358221220e49d678fc06979341aee58d62b91f4c211f3692acd3d4e94b1ab7de1fc59221464736f6c634300080a0033",
  "linkReferences": {},
  "deployedLinkReferences": {}
}